{
  "_format": "hh-sol-artifact-1",
  "contractName": "ProductRegistry",
  "sourceName": "contracts/ProductRegistry.sol",
  "abi": [
    {
      "inputs": [],
      "stateMutability": "nonpayable",
      "type": "constructor"
    },
    {
      "anonymous": false,
      "inputs": [
        {
          "indexed": false,
          "internalType": "string",
          "name": "productId",
          "type": "string"
        },
        {
          "indexed": false,
          "internalType": "string",
          "name": "name",
          "type": "string"
        },
        {
          "indexed": false,
          "internalType": "uint256",
          "name": "price",
          "type": "uint256"
        },
        {
          "indexed": false,
          "internalType": "address",
          "name": "manufacturer",
          "type": "address"
        }
      ],
      "name": "ProductAdded",
      "type": "event"
    },
    {
      "anonymous": false,
      "inputs": [
        {
          "indexed": false,
          "internalType": "string",
          "name": "productId",
          "type": "string"
        }
      ],
      "name": "ProductReportedFake",
      "type": "event"
    },
    {
      "inputs": [
        {
          "internalType": "string",
          "name": "productId",
          "type": "string"
        },
        {
          "internalType": "string",
          "name": "name",
          "type": "string"
        },
        {
          "internalType": "uint256",
          "name": "price",
          "type": "uint256"
        }
      ],
      "name": "addProduct",
      "outputs": [],
      "stateMutability": "nonpayable",
      "type": "function"
    },
    {
      "inputs": [
        {
          "internalType": "string",
          "name": "productId",
          "type": "string"
        }
      ],
      "name": "getProduct",
      "outputs": [
        {
          "components": [
            {
              "internalType": "string",
              "name": "productId",
              "type": "string"
            },
            {
              "internalType": "string",
              "name": "name",
              "type": "string"
            },
            {
              "internalType": "uint256",
              "name": "price",
              "type": "uint256"
            },
            {
              "internalType": "address",
              "name": "manufacturer",
              "type": "address"
            },
            {
              "internalType": "bool",
              "name": "exists",
              "type": "bool"
            },
            {
              "internalType": "bool",
              "name": "isFake",
              "type": "bool"
            }
          ],
          "internalType": "struct ProductRegistry.Product",
          "name": "",
          "type": "tuple"
        }
      ],
      "stateMutability": "view",
      "type": "function"
    },
    {
      "inputs": [
        {
          "internalType": "string",
          "name": "productId",
          "type": "string"
        }
      ],
      "name": "isProductExist",
      "outputs": [
        {
          "internalType": "bool",
          "name": "",
          "type": "bool"
        }
      ],
      "stateMutability": "view",
      "type": "function"
    },
    {
      "inputs": [],
      "name": "owner",
      "outputs": [
        {
          "internalType": "address",
          "name": "",
          "type": "address"
        }
      ],
      "stateMutability": "view",
      "type": "function"
    },
    {
      "inputs": [
        {
          "internalType": "string",
          "name": "productId",
          "type": "string"
        }
      ],
      "name": "reportFake",
      "outputs": [],
      "stateMutability": "nonpayable",
      "type": "function"
    }
  ],
  "bytecode": "0x6080604052348015600f57600080fd5b5033600160006101000a81548173ffffffffffffffffffffffffffffffffffffffff021916908373ffffffffffffffffffffffffffffffffffffffff16021790555061136b806100606000396000f3fe608060405234801561001057600080fd5b50600436106100575760003560e01c806350a5ddfd1461005c57806368111cce1461008c5780638da5cb5b146100bc578063f28ea1c1146100da578063f8731db1146100f6575b600080fd5b6100766004803603810190610071919061098e565b610112565b60405161008391906109f2565b60405180910390f35b6100a660048036038101906100a1919061098e565b610149565b6040516100b39190610b85565b60405180910390f35b6100c46103a9565b6040516100d19190610bb6565b60405180910390f35b6100f460048036038101906100ef9190610bfd565b6103cf565b005b610110600480360381019061010b919061098e565b610672565b005b600080826040516101239190610cc4565b908152602001604051809103902060030160149054906101000a900460ff169050919050565b6101516107e4565b6000826040516101619190610cc4565b908152602001604051809103902060030160149054906101000a900460ff166101bf576040517f08c379a00000000000000000000000000000000000000000000000000000000081526004016101b690610d38565b60405180910390fd5b6000826040516101cf9190610cc4565b90815260200160405180910390206040518060c00160405290816000820180546101f890610d87565b80601f016020809104026020016040519081016040528092919081815260200182805461022490610d87565b80156102715780601f1061024657610100808354040283529160200191610271565b820191906000526020600020905b81548152906001019060200180831161025457829003601f168201915b5050505050815260200160018201805461028a90610d87565b80601f01602080910402602001604051908101604052809291908181526020018280546102b690610d87565b80156103035780601f106102d857610100808354040283529160200191610303565b820191906000526020600020905b8154815290600101906020018083116102e657829003601f168201915b50505050508152602001600282015481526020016003820160009054906101000a900473ffffffffffffffffffffffffffffffffffffffff1673ffffffffffffffffffffffffffffffffffffffff1673ffffffffffffffffffffffffffffffffffffffff1681526020016003820160149054906101000a900460ff161515151581526020016003820160159054906101000a900460ff1615151515815250509050919050565b600160009054906101000a900473ffffffffffffffffffffffffffffffffffffffff1681565b6000836040516103df9190610cc4565b908152602001604051809103902060030160149054906101000a900460ff161561043e576040517f08c379a000000000000000000000000000000000000000000000000000000000815260040161043590610e04565b60405180910390fd5b6000835111610482576040517f08c379a000000000000000000000000000000000000000000000000000000000815260040161047990610e70565b60405180910390fd5b60008251116104c6576040517f08c379a00000000000000000000000000000000000000000000000000000000081526004016104bd90610edc565b60405180910390fd5b60008111610509576040517f08c379a000000000000000000000000000000000000000000000000000000000815260040161050090610f48565b60405180910390fd5b6040518060c001604052808481526020018381526020018281526020013373ffffffffffffffffffffffffffffffffffffffff168152602001600115158152602001600015158152506000846040516105629190610cc4565b908152602001604051809103902060008201518160000190816105859190611114565b50602082015181600101908161059b9190611114565b506040820151816002015560608201518160030160006101000a81548173ffffffffffffffffffffffffffffffffffffffff021916908373ffffffffffffffffffffffffffffffffffffffff16021790555060808201518160030160146101000a81548160ff02191690831515021790555060a08201518160030160156101000a81548160ff0219169083151502179055509050507f93cf4d4d474d7e8209cea310632fd0e254a7ef6bbf5bae88662b05358892083a83838333604051610665949392919061122e565b60405180910390a1505050565b600160009054906101000a900473ffffffffffffffffffffffffffffffffffffffff1673ffffffffffffffffffffffffffffffffffffffff163373ffffffffffffffffffffffffffffffffffffffff1614610702576040517f08c379a00000000000000000000000000000000000000000000000000000000081526004016106f9906112f3565b60405180910390fd5b6000816040516107129190610cc4565b908152602001604051809103902060030160149054906101000a900460ff16610770576040517f08c379a000000000000000000000000000000000000000000000000000000000815260040161076790610d38565b60405180910390fd5b60016000826040516107829190610cc4565b908152602001604051809103902060030160156101000a81548160ff0219169083151502179055507f528008e6e264516b0d9c2fa9f1cbe10602504713c20ddb5d8d0e122bd389d302816040516107d99190611313565b60405180910390a150565b6040518060c00160405280606081526020016060815260200160008152602001600073ffffffffffffffffffffffffffffffffffffffff1681526020016000151581526020016000151581525090565b6000604051905090565b600080fd5b600080fd5b600080fd5b600080fd5b6000601f19601f8301169050919050565b7f4e487b7100000000000000000000000000000000000000000000000000000000600052604160045260246000fd5b61089b82610852565b810181811067ffffffffffffffff821117156108ba576108b9610863565b5b80604052505050565b60006108cd610834565b90506108d98282610892565b919050565b600067ffffffffffffffff8211156108f9576108f8610863565b5b61090282610852565b9050602081019050919050565b82818337600083830152505050565b600061093161092c846108de565b6108c3565b90508281526020810184848401111561094d5761094c61084d565b5b61095884828561090f565b509392505050565b600082601f83011261097557610974610848565b5b813561098584826020860161091e565b91505092915050565b6000602082840312156109a4576109a361083e565b5b600082013567ffffffffffffffff8111156109c2576109c1610843565b5b6109ce84828501610960565b91505092915050565b60008115159050919050565b6109ec816109d7565b82525050565b6000602082019050610a0760008301846109e3565b92915050565b600081519050919050565b600082825260208201905092915050565b60005b83811015610a47578082015181840152602081019050610a2c565b60008484015250505050565b6000610a5e82610a0d565b610a688185610a18565b9350610a78818560208601610a29565b610a8181610852565b840191505092915050565b6000819050919050565b610a9f81610a8c565b82525050565b600073ffffffffffffffffffffffffffffffffffffffff82169050919050565b6000610ad082610aa5565b9050919050565b610ae081610ac5565b82525050565b610aef816109d7565b82525050565b600060c0830160008301518482036000860152610b128282610a53565b91505060208301518482036020860152610b2c8282610a53565b9150506040830151610b416040860182610a96565b506060830151610b546060860182610ad7565b506080830151610b676080860182610ae6565b5060a0830151610b7a60a0860182610ae6565b508091505092915050565b60006020820190508181036000830152610b9f8184610af5565b905092915050565b610bb081610ac5565b82525050565b6000602082019050610bcb6000830184610ba7565b92915050565b610bda81610a8c565b8114610be557600080fd5b50565b600081359050610bf781610bd1565b92915050565b600080600060608486031215610c1657610c1561083e565b5b600084013567ffffffffffffffff811115610c3457610c33610843565b5b610c4086828701610960565b935050602084013567ffffffffffffffff811115610c6157610c60610843565b5b610c6d86828701610960565b9250506040610c7e86828701610be8565b9150509250925092565b600081905092915050565b6000610c9e82610a0d565b610ca88185610c88565b9350610cb8818560208601610a29565b80840191505092915050565b6000610cd08284610c93565b915081905092915050565b600082825260208201905092915050565b7f50726f64756374206e6f7420666f756e64000000000000000000000000000000600082015250565b6000610d22601183610cdb565b9150610d2d82610cec565b602082019050919050565b60006020820190508181036000830152610d5181610d15565b9050919050565b7f4e487b7100000000000000000000000000000000000000000000000000000000600052602260045260246000fd5b60006002820490506001821680610d9f57607f821691505b602082108103610db257610db1610d58565b5b50919050565b7f50726f6475637420616c72656164792065786973747300000000000000000000600082015250565b6000610dee601683610cdb565b9150610df982610db8565b602082019050919050565b60006020820190508181036000830152610e1d81610de1565b9050919050565b7f50726f6475637420494420697320726571756972656400000000000000000000600082015250565b6000610e5a601683610cdb565b9150610e6582610e24565b602082019050919050565b60006020820190508181036000830152610e8981610e4d565b9050919050565b7f4e616d6520697320726571756972656400000000000000000000000000000000600082015250565b6000610ec6601083610cdb565b9150610ed182610e90565b602082019050919050565b60006020820190508181036000830152610ef581610eb9565b9050919050565b7f496e76616c696420707269636500000000000000000000000000000000000000600082015250565b6000610f32600d83610cdb565b9150610f3d82610efc565b602082019050919050565b60006020820190508181036000830152610f6181610f25565b9050919050565b60008190508160005260206000209050919050565b60006020601f8301049050919050565b600082821b905092915050565b600060088302610fca7fffffffffffffffffffffffffffffffffffffffffffffffffffffffffffffffff82610f8d565b610fd48683610f8d565b95508019841693508086168417925050509392505050565b6000819050919050565b600061101161100c61100784610a8c565b610fec565b610a8c565b9050919050565b6000819050919050565b61102b83610ff6565b61103f61103782611018565b848454610f9a565b825550505050565b600090565b611054611047565b61105f818484611022565b505050565b5b818110156110835761107860008261104c565b600181019050611065565b5050565b601f8211156110c85761109981610f68565b6110a284610f7d565b810160208510156110b1578190505b6110c56110bd85610f7d565b830182611064565b50505b505050565b600082821c905092915050565b60006110eb600019846008026110cd565b1980831691505092915050565b600061110483836110da565b9150826002028217905092915050565b61111d82610a0d565b67ffffffffffffffff81111561113657611135610863565b5b6111408254610d87565b61114b828285611087565b600060209050601f83116001811461117e576000841561116c578287015190505b61117685826110f8565b8655506111de565b601f19841661118c86610f68565b60005b828110156111b45784890151825560018201915060208501945060208101905061118f565b868310156111d157848901516111cd601f8916826110da565b8355505b6001600288020188555050505b505050505050565b60006111f182610a0d565b6111fb8185610cdb565b935061120b818560208601610a29565b61121481610852565b840191505092915050565b61122881610a8c565b82525050565b6000608082019050818103600083015261124881876111e6565b9050818103602083015261125c81866111e6565b905061126b604083018561121f565b6112786060830184610ba7565b95945050505050565b7f4f6e6c79206f776e65722063616e20706572666f726d2074686973206163746960008201527f6f6e000000000000000000000000000000000000000000000000000000000000602082015250565b60006112dd602283610cdb565b91506112e882611281565b604082019050919050565b6000602082019050818103600083015261130c816112d0565b9050919050565b6000602082019050818103600083015261132d81846111e6565b90509291505056fea2646970667358221220364ae87fe33cde9d9894e763586a4cf5f59324683bce37ba0f1c68fe0cbf16a564736f6c634300081c0033",
  "linkReferences": {},
  "deployedLinkReferences": {}
}