{
  "_format": "hh3-artifact-1",
  "contractName": "ProductRegistry",
  "sourceName": "contracts/ProductRegistry.sol",
  "abi": [
    {
      "inputs": [],
      "stateMutability": "nonpayable",
      "type": "constructor"
    },
    {
      "anonymous": false,
      "inputs": [
        {
          "indexed": false,
          "internalType": "string",
          "name": "productId",
          "type": "string"
        },
        {
          "indexed": false,
          "internalType": "string",
          "name": "name",
          "type": "string"
        },
        {
          "indexed": false,
          "internalType": "uint256",
          "name": "price",
          "type": "uint256"
        },
        {
          "indexed": false,
          "internalType": "address",
          "name": "manufacturer",
          "type": "address"
        }
      ],
      "name": "ProductAdded",
      "type": "event"
    },
    {
      "anonymous": false,
      "inputs": [
        {
          "indexed": false,
          "internalType": "string",
          "name": "productId",
          "type": "string"
        }
      ],
      "name": "ProductReportedFake",
      "type": "event"
    },
    {
      "inputs": [
        {
          "internalType": "string",
          "name": "productId",
          "type": "string"
        },
        {
          "internalType": "string",
          "name": "name",
          "type": "string"
        },
        {
          "internalType": "uint256",
          "name": "price",
          "type": "uint256"
        }
      ],
      "name": "addProduct",
      "outputs": [],
      "stateMutability": "nonpayable",
      "type": "function"
    },
    {
      "inputs": [
        {
          "internalType": "string",
          "name": "productId",
          "type": "string"
        }
      ],
      "name": "getProduct",
      "outputs": [
        {
          "components": [
            {
              "internalType": "string",
              "name": "productId",
              "type": "string"
            },
            {
              "internalType": "string",
              "name": "name",
              "type": "string"
            },
            {
              "internalType": "uint256",
              "name": "price",
              "type": "uint256"
            },
            {
              "internalType": "address",
              "name": "manufacturer",
              "type": "address"
            },
            {
              "internalType": "bool",
              "name": "exists",
              "type": "bool"
            },
            {
              "internalType": "bool",
              "name": "isFake",
              "type": "bool"
            }
          ],
          "internalType": "struct ProductRegistry.Product",
          "name": "",
          "type": "tuple"
        }
      ],
      "stateMutability": "view",
      "type": "function"
    },
    {
      "inputs": [
        {
          "internalType": "string",
          "name": "productId",
          "type": "string"
        }
      ],
      "name": "isProductExist",
      "outputs": [
        {
          "internalType": "bool",
          "name": "",
          "type": "bool"
        }
      ],
      "stateMutability": "view",
      "type": "function"
    },
    {
      "inputs": [],
      "name": "owner",
      "outputs": [
        {
          "internalType": "address",
          "name": "",
          "type": "address"
        }
      ],
      "stateMutability": "view",
      "type": "function"
    },
    {
      "inputs": [
        {
          "internalType": "string",
          "name": "productId",
          "type": "string"
        }
      ],
      "name": "reportFake",
      "outputs": [],
      "stateMutability": "nonpayable",
      "type": "function"
    }
  ],
  "bytecode": "0x6080604052348015600e575f5ffd5b503360015f6101000a81548173ffffffffffffffffffffffffffffffffffffffff021916908373ffffffffffffffffffffffffffffffffffffffff1602179055506112db8061005c5f395ff3fe608060405234801561000f575f5ffd5b5060043610610055575f3560e01c806350a5ddfd1461005957806368111cce146100895780638da5cb5b146100b9578063f28ea1c1146100d7578063f8731db1146100f3575b5f5ffd5b610073600480360381019061006e9190610964565b61010f565b60405161008091906109c5565b60405180910390f35b6100a3600480360381019061009e9190610964565b610145565b6040516100b09190610b31565b60405180910390f35b6100c161039d565b6040516100ce9190610b60565b60405180910390f35b6100f160048036038101906100ec9190610ba3565b6103c2565b005b61010d60048036038101906101089190610964565b61065c565b005b5f5f8260405161011f9190610c65565b908152602001604051809103902060030160149054906101000a900460ff169050919050565b61014d6107cb565b5f8260405161015c9190610c65565b908152602001604051809103902060030160149054906101000a900460ff166101ba576040517f08c379a00000000000000000000000000000000000000000000000000000000081526004016101b190610cd5565b60405180910390fd5b5f826040516101c99190610c65565b90815260200160405180910390206040518060c00160405290815f820180546101f190610d20565b80601f016020809104026020016040519081016040528092919081815260200182805461021d90610d20565b80156102685780601f1061023f57610100808354040283529160200191610268565b820191905f5260205f20905b81548152906001019060200180831161024b57829003601f168201915b5050505050815260200160018201805461028190610d20565b80601f01602080910402602001604051908101604052809291908181526020018280546102ad90610d20565b80156102f85780601f106102cf576101008083540402835291602001916102f8565b820191905f5260205f20905b8154815290600101906020018083116102db57829003601f168201915b5050505050815260200160028201548152602001600382015f9054906101000a900473ffffffffffffffffffffffffffffffffffffffff1673ffffffffffffffffffffffffffffffffffffffff1673ffffffffffffffffffffffffffffffffffffffff1681526020016003820160149054906101000a900460ff161515151581526020016003820160159054906101000a900460ff1615151515815250509050919050565b60015f9054906101000a900473ffffffffffffffffffffffffffffffffffffffff1681565b5f836040516103d19190610c65565b908152602001604051809103902060030160149054906101000a900460ff1615610430576040517f08c379a000000000000000000000000000000000000000000000000000000000815260040161042790610d9a565b60405180910390fd5b5f835111610473576040517f08c379a000000000000000000000000000000000000000000000000000000000815260040161046a90610e02565b60405180910390fd5b5f8251116104b6576040517f08c379a00000000000000000000000000000000000000000000000000000000081526004016104ad90610e6a565b60405180910390fd5b5f81116104f8576040517f08c379a00000000000000000000000000000000000000000000000000000000081526004016104ef90610ed2565b60405180910390fd5b6040518060c001604052808481526020018381526020018281526020013373ffffffffffffffffffffffffffffffffffffffff1681526020016001151581526020015f15158152505f8460405161054f9190610c65565b90815260200160405180910390205f820151815f0190816105709190611090565b5060208201518160010190816105869190611090565b50604082015181600201556060820151816003015f6101000a81548173ffffffffffffffffffffffffffffffffffffffff021916908373ffffffffffffffffffffffffffffffffffffffff16021790555060808201518160030160146101000a81548160ff02191690831515021790555060a08201518160030160156101000a81548160ff0219169083151502179055509050507f93cf4d4d474d7e8209cea310632fd0e254a7ef6bbf5bae88662b05358892083a8383833360405161064f94939291906111a6565b60405180910390a1505050565b60015f9054906101000a900473ffffffffffffffffffffffffffffffffffffffff1673ffffffffffffffffffffffffffffffffffffffff163373ffffffffffffffffffffffffffffffffffffffff16146106eb576040517f08c379a00000000000000000000000000000000000000000000000000000000081526004016106e290611267565b60405180910390fd5b5f816040516106fa9190610c65565b908152602001604051809103902060030160149054906101000a900460ff16610758576040517f08c379a000000000000000000000000000000000000000000000000000000000815260040161074f90610cd5565b60405180910390fd5b60015f826040516107699190610c65565b908152602001604051809103902060030160156101000a81548160ff0219169083151502179055507f528008e6e264516b0d9c2fa9f1cbe10602504713c20ddb5d8d0e122bd389d302816040516107c09190611285565b60405180910390a150565b6040518060c0016040528060608152602001606081526020015f81526020015f73ffffffffffffffffffffffffffffffffffffffff1681526020015f151581526020015f151581525090565b5f604051905090565b5f5ffd5b5f5ffd5b5f5ffd5b5f5ffd5b5f601f19601f8301169050919050565b7f4e487b71000000000000000000000000000000000000000000000000000000005f52604160045260245ffd5b61087682610830565b810181811067ffffffffffffffff8211171561089557610894610840565b5b80604052505050565b5f6108a7610817565b90506108b3828261086d565b919050565b5f67ffffffffffffffff8211156108d2576108d1610840565b5b6108db82610830565b9050602081019050919050565b828183375f83830152505050565b5f610908610903846108b8565b61089e565b9050828152602081018484840111156109245761092361082c565b5b61092f8482856108e8565b509392505050565b5f82601f83011261094b5761094a610828565b5b813561095b8482602086016108f6565b91505092915050565b5f6020828403121561097957610978610820565b5b5f82013567ffffffffffffffff81111561099657610995610824565b5b6109a284828501610937565b91505092915050565b5f8115159050919050565b6109bf816109ab565b82525050565b5f6020820190506109d85f8301846109b6565b92915050565b5f81519050919050565b5f82825260208201905092915050565b8281835e5f83830152505050565b5f610a10826109de565b610a1a81856109e8565b9350610a2a8185602086016109f8565b610a3381610830565b840191505092915050565b5f819050919050565b610a5081610a3e565b82525050565b5f73ffffffffffffffffffffffffffffffffffffffff82169050919050565b5f610a7f82610a56565b9050919050565b610a8f81610a75565b82525050565b610a9e816109ab565b82525050565b5f60c083015f8301518482035f860152610abe8282610a06565b91505060208301518482036020860152610ad88282610a06565b9150506040830151610aed6040860182610a47565b506060830151610b006060860182610a86565b506080830151610b136080860182610a95565b5060a0830151610b2660a0860182610a95565b508091505092915050565b5f6020820190508181035f830152610b498184610aa4565b905092915050565b610b5a81610a75565b82525050565b5f602082019050610b735f830184610b51565b92915050565b610b8281610a3e565b8114610b8c575f5ffd5b50565b5f81359050610b9d81610b79565b92915050565b5f5f5f60608486031215610bba57610bb9610820565b5b5f84013567ffffffffffffffff811115610bd757610bd6610824565b5b610be386828701610937565b935050602084013567ffffffffffffffff811115610c0457610c03610824565b5b610c1086828701610937565b9250506040610c2186828701610b8f565b9150509250925092565b5f81905092915050565b5f610c3f826109de565b610c498185610c2b565b9350610c598185602086016109f8565b80840191505092915050565b5f610c708284610c35565b915081905092915050565b5f82825260208201905092915050565b7f50726f64756374206e6f7420666f756e640000000000000000000000000000005f82015250565b5f610cbf601183610c7b565b9150610cca82610c8b565b602082019050919050565b5f6020820190508181035f830152610cec81610cb3565b9050919050565b7f4e487b71000000000000000000000000000000000000000000000000000000005f52602260045260245ffd5b5f6002820490506001821680610d3757607f821691505b602082108103610d4a57610d49610cf3565b5b50919050565b7f50726f6475637420616c726561647920657869737473000000000000000000005f82015250565b5f610d84601683610c7b565b9150610d8f82610d50565b602082019050919050565b5f6020820190508181035f830152610db181610d78565b9050919050565b7f50726f64756374204944206973207265717569726564000000000000000000005f82015250565b5f610dec601683610c7b565b9150610df782610db8565b602082019050919050565b5f6020820190508181035f830152610e1981610de0565b9050919050565b7f4e616d65206973207265717569726564000000000000000000000000000000005f82015250565b5f610e54601083610c7b565b9150610e5f82610e20565b602082019050919050565b5f6020820190508181035f830152610e8181610e48565b9050919050565b7f496e76616c6964207072696365000000000000000000000000000000000000005f82015250565b5f610ebc600d83610c7b565b9150610ec782610e88565b602082019050919050565b5f6020820190508181035f830152610ee981610eb0565b9050919050565b5f819050815f5260205f209050919050565b5f6020601f8301049050919050565b5f82821b905092915050565b5f60088302610f4c7fffffffffffffffffffffffffffffffffffffffffffffffffffffffffffffffff82610f11565b610f568683610f11565b95508019841693508086168417925050509392505050565b5f819050919050565b5f610f91610f8c610f8784610a3e565b610f6e565b610a3e565b9050919050565b5f819050919050565b610faa83610f77565b610fbe610fb682610f98565b848454610f1d565b825550505050565b5f5f905090565b610fd5610fc6565b610fe0818484610fa1565b505050565b5b8181101561100357610ff85f82610fcd565b600181019050610fe6565b5050565b601f8211156110485761101981610ef0565b61102284610f02565b81016020851015611031578190505b61104561103d85610f02565b830182610fe5565b50505b505050565b5f82821c905092915050565b5f6110685f198460080261104d565b1980831691505092915050565b5f6110808383611059565b9150826002028217905092915050565b611099826109de565b67ffffffffffffffff8111156110b2576110b1610840565b5b6110bc8254610d20565b6110c7828285611007565b5f60209050601f8311600181146110f8575f84156110e6578287015190505b6110f08582611075565b865550611157565b601f19841661110686610ef0565b5f5b8281101561112d57848901518255600182019150602085019450602081019050611108565b8683101561114a5784890151611146601f891682611059565b8355505b6001600288020188555050505b505050505050565b5f611169826109de565b6111738185610c7b565b93506111838185602086016109f8565b61118c81610830565b840191505092915050565b6111a081610a3e565b82525050565b5f6080820190508181035f8301526111be818761115f565b905081810360208301526111d2818661115f565b90506111e16040830185611197565b6111ee6060830184610b51565b95945050505050565b7f4f6e6c79206f776e65722063616e20706572666f726d207468697320616374695f8201527f6f6e000000000000000000000000000000000000000000000000000000000000602082015250565b5f611251602283610c7b565b915061125c826111f7565b604082019050919050565b5f6020820190508181035f83015261127e81611245565b9050919050565b5f6020820190508181035f83015261129d818461115f565b90509291505056fea2646970667358221220d203da8b4708729eceb683eb68182438b81c5fdb0ef2bde73ae9163ae619baee64736f6c634300081c0033",
  "linkReferences": {},
  "deployedLinkReferences": {},
  "immutableReferences": {},
  "inputSourceName": "project/contracts/ProductRegistry.sol",
  "buildInfoId": "solc-0_8_28-f168880e1eddb8cb7f356f3387496d7e4c4491e5"
}